{
  "_format": "hh-sol-artifact-1",
  "contractName": "Uniswap",
  "sourceName": "contracts/Uniswap.sol",
  "abi": [
    {
      "inputs": [],
      "stateMutability": "nonpayable",
      "type": "constructor"
    },
    {
      "inputs": [
        {
          "internalType": "string",
          "name": "tokenName",
          "type": "string"
        },
        {
          "internalType": "address",
          "name": "_address",
          "type": "address"
        }
      ],
      "name": "getBalance",
      "outputs": [
        {
          "internalType": "uint256",
          "name": "",
          "type": "uint256"
        }
      ],
      "stateMutability": "view",
      "type": "function"
    },
    {
      "inputs": [],
      "name": "getEthBalance",
      "outputs": [
        {
          "internalType": "uint256",
          "name": "",
          "type": "uint256"
        }
      ],
      "stateMutability": "view",
      "type": "function"
    },
    {
      "inputs": [
        {
          "internalType": "string",
          "name": "tokenName",
          "type": "string"
        }
      ],
      "name": "getName",
      "outputs": [
        {
          "internalType": "string",
          "name": "",
          "type": "string"
        }
      ],
      "stateMutability": "view",
      "type": "function"
    },
    {
      "inputs": [
        {
          "internalType": "string",
          "name": "tokenName",
          "type": "string"
        }
      ],
      "name": "getTokenAddress",
      "outputs": [
        {
          "internalType": "address",
          "name": "",
          "type": "address"
        }
      ],
      "stateMutability": "view",
      "type": "function"
    },
    {
      "inputs": [
        {
          "internalType": "string",
          "name": "tokenName",
          "type": "string"
        }
      ],
      "name": "getTotalSupply",
      "outputs": [
        {
          "internalType": "uint256",
          "name": "",
          "type": "uint256"
        }
      ],
      "stateMutability": "view",
      "type": "function"
    },
    {
      "inputs": [
        {
          "internalType": "string",
          "name": "tokenName",
          "type": "string"
        }
      ],
      "name": "swapEthToToken",
      "outputs": [
        {
          "internalType": "uint256",
          "name": "",
          "type": "uint256"
        }
      ],
      "stateMutability": "payable",
      "type": "function"
    },
    {
      "inputs": [
        {
          "internalType": "string",
          "name": "tokenName",
          "type": "string"
        },
        {
          "internalType": "uint256",
          "name": "_amount",
          "type": "uint256"
        }
      ],
      "name": "swapTokenToEth",
      "outputs": [
        {
          "internalType": "uint256",
          "name": "",
          "type": "uint256"
        }
      ],
      "stateMutability": "nonpayable",
      "type": "function"
    },
    {
      "inputs": [
        {
          "internalType": "string",
          "name": "srcTokenName",
          "type": "string"
        },
        {
          "internalType": "string",
          "name": "destTokenName",
          "type": "string"
        },
        {
          "internalType": "uint256",
          "name": "_amount",
          "type": "uint256"
        }
      ],
      "name": "swapTokenToToken",
      "outputs": [],
      "stateMutability": "nonpayable",
      "type": "function"
    },
    {
      "inputs": [
        {
          "internalType": "string",
          "name": "",
          "type": "string"
        }
      ],
      "name": "tokenInstanceMap",
      "outputs": [
        {
          "internalType": "contract ERC20",
          "name": "",
          "type": "address"
        }
      ],
      "stateMutability": "view",
      "type": "function"
    },
    {
      "inputs": [
        {
          "internalType": "uint256",
          "name": "",
          "type": "uint256"
        }
      ],
      "name": "tokens",
      "outputs": [
        {
          "internalType": "string",
          "name": "",
          "type": "string"
        }
      ],
      "stateMutability": "view",
      "type": "function"
    }
  ],
  "bytecode": "0x608060405260405180606001604052806040518060400160405280600581526020017f436f696e4100000000000000000000000000000000000000000000000000000081525081526020016040518060400160405280600581526020017f436f696e4200000000000000000000000000000000000000000000000000000081525081526020016040518060400160405280600581526020017f436f696e430000000000000000000000000000000000000000000000000000008152508152506000906003620000d092919062000281565b50655af3107a4000600155348015620000e857600080fd5b5060005b6000805490508110156200027a57600080828154811062000136577f4e487b7100000000000000000000000000000000000000000000000000000000600052603260045260246000fd5b90600052602060002001600083815481106200017b577f4e487b7100000000000000000000000000000000000000000000000000000000600052603260045260246000fd5b906000526020600020016040516200019390620002e8565b620001a092919062000544565b604051809103906000f080158015620001bd573d6000803e3d6000fd5b50905080600260008481548110620001fe577f4e487b7100000000000000000000000000000000000000000000000000000000600052603260045260246000fd5b906000526020600020016040516200021791906200052b565b908152602001604051809103902060006101000a81548173ffffffffffffffffffffffffffffffffffffffff021916908373ffffffffffffffffffffffffffffffffffffffff1602179055505080806200027190620005f0565b915050620000ec565b506200069c565b828054828255906000526020600020908101928215620002d5579160200282015b82811115620002d4578251829080519060200190620002c3929190620002f6565b5091602001919060010190620002a2565b5b509050620002e4919062000387565b5090565b61190780620019c883390190565b8280546200030490620005ba565b90600052602060002090601f01602090048101928262000328576000855562000374565b82601f106200034357805160ff191683800117855562000374565b8280016001018555821562000374579182015b828111156200037357825182559160200191906001019062000356565b5b509050620003839190620003af565b5090565b5b80821115620003ab5760008181620003a19190620003ce565b5060010162000388565b5090565b5b80821115620003ca576000816000905550600101620003b0565b5090565b508054620003dc90620005ba565b6000825580601f10620003f0575062000411565b601f016020900490600052602060002090810190620004109190620003af565b5b50565b600081546200042381620005ba565b6200042f818662000594565b945060018216600081146200044d5760018114620004605762000497565b60ff198316865260208601935062000497565b6200046b856200057f565b60005b838110156200048f578154818901526001820191506020810190506200046e565b808801955050505b50505092915050565b60008154620004af81620005ba565b620004bb8186620005a5565b94506001821660008114620004d95760018114620004eb5762000522565b60ff1983168652818601935062000522565b620004f6856200057f565b60005b838110156200051a57815481890152600182019150602081019050620004f9565b838801955050505b50505092915050565b6000620005398284620004a0565b915081905092915050565b6000604082019050818103600083015262000560818562000414565b9050818103602083015262000576818462000414565b90509392505050565b60008190508160005260206000209050919050565b600082825260208201905092915050565b600081905092915050565b6000819050919050565b60006002820490506001821680620005d357607f821691505b60208210811415620005ea57620005e96200066d565b5b50919050565b6000620005fd82620005b0565b91507fffffffffffffffffffffffffffffffffffffffffffffffffffffffffffffffff8214156200063357620006326200063e565b5b600182019050919050565b7f4e487b7100000000000000000000000000000000000000000000000000000000600052601160045260246000fd5b7f4e487b7100000000000000000000000000000000000000000000000000000000600052602260045260246000fd5b61131c80620006ac6000396000f3fe6080604052600436106100915760003560e01c806389f4b3171161005957806389f4b317146101a8578063a93325ed146101e5578063bf015aae14610222578063c40912361461024b578063db6f63ee1461028857610091565b80634f64b2be146100965780635463109e146100d357806363fcf7c5146101105780636932cf811461014057806370ed0ada1461017d575b600080fd5b3480156100a257600080fd5b506100bd60048036038101906100b89190610dae565b6102c5565b6040516100ca9190610f84565b60405180910390f35b3480156100df57600080fd5b506100fa60048036038101906100f59190610c05565b610371565b6040516101079190610fc6565b60405180910390f35b61012a60048036038101906101259190610c05565b610436565b6040516101379190610fc6565b60405180910390f35b34801561014c57600080fd5b5061016760048036038101906101629190610c05565b61053f565b6040516101749190610f84565b60405180910390f35b34801561018957600080fd5b50610192610609565b60405161019f9190610fc6565b60405180910390f35b3480156101b457600080fd5b506101cf60048036038101906101ca9190610c87565b610611565b6040516101dc9190610fc6565b60405180910390f35b3480156101f157600080fd5b5061020c60048036038101906102079190610c05565b6106e2565b6040516102199190610f69565b60405180910390f35b34801561022e57600080fd5b5061024960048036038101906102449190610cdb565b61072b565b005b34801561025757600080fd5b50610272600480360381019061026d9190610c05565b6108da565b60405161027f9190610eee565b60405180910390f35b34801561029457600080fd5b506102af60048036038101906102aa9190610d5a565b610922565b6040516102bc9190610fc6565b60405180910390f35b600081815481106102d557600080fd5b9060005260206000200160009150905080546102f0906111a2565b80601f016020809104026020016040519081016040528092919081815260200182805461031c906111a2565b80156103695780601f1061033e57610100808354040283529160200191610369565b820191906000526020600020905b81548152906001019060200180831161034c57829003601f168201915b505050505081565b60006002826040516103839190610ed7565b908152602001604051809103902060009054906101000a900473ffffffffffffffffffffffffffffffffffffffff1673ffffffffffffffffffffffffffffffffffffffff166318160ddd6040518163ffffffff1660e01b815260040160206040518083038186803b1580156103f757600080fd5b505afa15801561040b573d6000803e3d6000fd5b505050506040513d601f19601f8201168201806040525081019061042f9190610dd7565b9050919050565b6000803490506000670de0b6b3a7640000600154836104559190611069565b61045f919061109a565b90506002846040516104719190610ed7565b908152602001604051809103902060009054906101000a900473ffffffffffffffffffffffffffffffffffffffff1673ffffffffffffffffffffffffffffffffffffffff1663a9059cbb33836040518363ffffffff1660e01b81526004016104da929190610f40565b602060405180830381600087803b1580156104f457600080fd5b505af1158015610508573d6000803e3d6000fd5b505050506040513d601f19601f8201168201806040525081019061052c9190610bdc565b61053557600080fd5b8092505050919050565b60606002826040516105519190610ed7565b908152602001604051809103902060009054906101000a900473ffffffffffffffffffffffffffffffffffffffff1673ffffffffffffffffffffffffffffffffffffffff166306fdde036040518163ffffffff1660e01b815260040160006040518083038186803b1580156105c557600080fd5b505afa1580156105d9573d6000803e3d6000fd5b505050506040513d6000823e3d601f19601f820116820180604052508101906106029190610c46565b9050919050565b600047905090565b60006002836040516106239190610ed7565b908152602001604051809103902060009054906101000a900473ffffffffffffffffffffffffffffffffffffffff1673ffffffffffffffffffffffffffffffffffffffff166370a08231836040518263ffffffff1660e01b815260040161068a9190610eee565b60206040518083038186803b1580156106a257600080fd5b505afa1580156106b6573d6000803e3d6000fd5b505050506040513d601f19601f820116820180604052508101906106da9190610dd7565b905092915050565b6002818051602081018201805184825260208301602085012081835280955050505050506000915054906101000a900473ffffffffffffffffffffffffffffffffffffffff1681565b60028360405161073b9190610ed7565b908152602001604051809103902060009054906101000a900473ffffffffffffffffffffffffffffffffffffffff1673ffffffffffffffffffffffffffffffffffffffff166323b872dd3330846040518463ffffffff1660e01b81526004016107a693929190610f09565b602060405180830381600087803b1580156107c057600080fd5b505af11580156107d4573d6000803e3d6000fd5b505050506040513d601f19601f820116820180604052508101906107f89190610bdc565b61080157600080fd5b6002826040516108119190610ed7565b908152602001604051809103902060009054906101000a900473ffffffffffffffffffffffffffffffffffffffff1673ffffffffffffffffffffffffffffffffffffffff1663a9059cbb33836040518363ffffffff1660e01b815260040161087a929190610f40565b602060405180830381600087803b15801561089457600080fd5b505af11580156108a8573d6000803e3d6000fd5b505050506040513d601f19601f820116820180604052508101906108cc9190610bdc565b6108d557600080fd5b505050565b60006002826040516108ec9190610ed7565b908152602001604051809103902060009054906101000a900473ffffffffffffffffffffffffffffffffffffffff169050919050565b600080670de0b6b3a7640000836109399190611069565b905060006001548261094b919061109a565b905080471015610990576040517f08c379a000000000000000000000000000000000000000000000000000000000815260040161098790610fa6565b60405180910390fd5b3373ffffffffffffffffffffffffffffffffffffffff166108fc829081150290604051600060405180830381858888f193505050501580156109d6573d6000803e3d6000fd5b506002856040516109e79190610ed7565b908152602001604051809103902060009054906101000a900473ffffffffffffffffffffffffffffffffffffffff1673ffffffffffffffffffffffffffffffffffffffff166323b872dd3330876040518463ffffffff1660e01b8152600401610a5293929190610f09565b602060405180830381600087803b158015610a6c57600080fd5b505af1158015610a80573d6000803e3d6000fd5b505050506040513d601f19601f82011682018060405250810190610aa49190610bdc565b610aad57600080fd5b809250505092915050565b6000610acb610ac684611012565b610fe1565b905082815260208101848484011115610ae357600080fd5b610aee848285611160565b509392505050565b6000610b09610b0484611012565b610fe1565b905082815260208101848484011115610b2157600080fd5b610b2c84828561116f565b509392505050565b600081359050610b43816112a1565b92915050565b600081519050610b58816112b8565b92915050565b600082601f830112610b6f57600080fd5b8135610b7f848260208601610ab8565b91505092915050565b600082601f830112610b9957600080fd5b8151610ba9848260208601610af6565b91505092915050565b600081359050610bc1816112cf565b92915050565b600081519050610bd6816112cf565b92915050565b600060208284031215610bee57600080fd5b6000610bfc84828501610b49565b91505092915050565b600060208284031215610c1757600080fd5b600082013567ffffffffffffffff811115610c3157600080fd5b610c3d84828501610b5e565b91505092915050565b600060208284031215610c5857600080fd5b600082015167ffffffffffffffff811115610c7257600080fd5b610c7e84828501610b88565b91505092915050565b60008060408385031215610c9a57600080fd5b600083013567ffffffffffffffff811115610cb457600080fd5b610cc085828601610b5e565b9250506020610cd185828601610b34565b9150509250929050565b600080600060608486031215610cf057600080fd5b600084013567ffffffffffffffff811115610d0a57600080fd5b610d1686828701610b5e565b935050602084013567ffffffffffffffff811115610d3357600080fd5b610d3f86828701610b5e565b9250506040610d5086828701610bb2565b9150509250925092565b60008060408385031215610d6d57600080fd5b600083013567ffffffffffffffff811115610d8757600080fd5b610d9385828601610b5e565b9250506020610da485828601610bb2565b9150509250929050565b600060208284031215610dc057600080fd5b6000610dce84828501610bb2565b91505092915050565b600060208284031215610de957600080fd5b6000610df784828501610bc7565b91505092915050565b610e09816110f4565b82525050565b610e188161113c565b82525050565b6000610e2982611042565b610e33818561104d565b9350610e4381856020860161116f565b610e4c81611290565b840191505092915050565b6000610e6282611042565b610e6c818561105e565b9350610e7c81856020860161116f565b80840191505092915050565b6000610e95601e8361104d565b91507f4465782069732072756e6e696e67206c6f77206f6e2062616c616e63652e00006000830152602082019050919050565b610ed181611132565b82525050565b6000610ee38284610e57565b915081905092915050565b6000602082019050610f036000830184610e00565b92915050565b6000606082019050610f1e6000830186610e00565b610f2b6020830185610e00565b610f386040830184610ec8565b949350505050565b6000604082019050610f556000830185610e00565b610f626020830184610ec8565b9392505050565b6000602082019050610f7e6000830184610e0f565b92915050565b60006020820190508181036000830152610f9e8184610e1e565b905092915050565b60006020820190508181036000830152610fbf81610e88565b9050919050565b6000602082019050610fdb6000830184610ec8565b92915050565b6000604051905081810181811067ffffffffffffffff8211171561100857611007611261565b5b8060405250919050565b600067ffffffffffffffff82111561102d5761102c611261565b5b601f19601f8301169050602081019050919050565b600081519050919050565b600082825260208201905092915050565b600081905092915050565b600061107482611132565b915061107f83611132565b92508261108f5761108e611203565b5b828204905092915050565b60006110a582611132565b91506110b083611132565b9250817fffffffffffffffffffffffffffffffffffffffffffffffffffffffffffffffff04831182151516156110e9576110e86111d4565b5b828202905092915050565b60006110ff82611112565b9050919050565b60008115159050919050565b600073ffffffffffffffffffffffffffffffffffffffff82169050919050565b6000819050919050565b60006111478261114e565b9050919050565b600061115982611112565b9050919050565b82818337600083830152505050565b60005b8381101561118d578082015181840152602081019050611172565b8381111561119c576000848401525b50505050565b600060028204905060018216806111ba57607f821691505b602082108114156111ce576111cd611232565b5b50919050565b7f4e487b7100000000000000000000000000000000000000000000000000000000600052601160045260246000fd5b7f4e487b7100000000000000000000000000000000000000000000000000000000600052601260045260246000fd5b7f4e487b7100000000000000000000000000000000000000000000000000000000600052602260045260246000fd5b7f4e487b7100000000000000000000000000000000000000000000000000000000600052604160045260246000fd5b6000601f19601f8301169050919050565b6112aa816110f4565b81146112b557600080fd5b50565b6112c181611106565b81146112cc57600080fd5b50565b6112d881611132565b81146112e357600080fd5b5056fea264697066735822122003364e59a1f2deb2ad9ad0a6fff12a75a77a51e7fa4fa79abafc7e13c610e14d64736f6c6343000800003360806040523480156200001157600080fd5b506040516200190738038062001907833981810160405281019062000037919062000335565b818181600390805190602001906200005192919062000213565b5080600490805190602001906200006a92919062000213565b5050506200008833683635c9adc5dea000006200009060201b60201c565b505062000612565b600073ffffffffffffffffffffffffffffffffffffffff168273ffffffffffffffffffffffffffffffffffffffff16141562000103576040517f08c379a0000000000000000000000000000000000000000000000000000000008152600401620000fa90620003fb565b60405180910390fd5b62000117600083836200020960201b60201c565b80600260008282546200012b9190620004b2565b92505081905550806000808473ffffffffffffffffffffffffffffffffffffffff1673ffffffffffffffffffffffffffffffffffffffff1681526020019081526020016000206000828254620001829190620004b2565b925050819055508173ffffffffffffffffffffffffffffffffffffffff16600073ffffffffffffffffffffffffffffffffffffffff167fddf252ad1be2c89b69c2b068fc378daa952ba7f163c4a11628f55a4df523b3ef83604051620001e991906200041d565b60405180910390a362000205600083836200020e60201b60201c565b5050565b505050565b505050565b82805462000221906200054f565b90600052602060002090601f01602090048101928262000245576000855562000291565b82601f106200026057805160ff191683800117855562000291565b8280016001018555821562000291579182015b828111156200029057825182559160200191906001019062000273565b5b509050620002a09190620002a4565b5090565b5b80821115620002bf576000816000905550600101620002a5565b5090565b6000620002da620002d4846200046e565b6200043a565b905082815260208101848484011115620002f357600080fd5b6200030084828562000519565b509392505050565b600082601f8301126200031a57600080fd5b81516200032c848260208601620002c3565b91505092915050565b600080604083850312156200034957600080fd5b600083015167ffffffffffffffff8111156200036457600080fd5b620003728582860162000308565b925050602083015167ffffffffffffffff8111156200039057600080fd5b6200039e8582860162000308565b9150509250929050565b6000620003b7601f83620004a1565b91507f45524332303a206d696e7420746f20746865207a65726f2061646472657373006000830152602082019050919050565b620003f5816200050f565b82525050565b600060208201905081810360008301526200041681620003a8565b9050919050565b6000602082019050620004346000830184620003ea565b92915050565b6000604051905081810181811067ffffffffffffffff82111715620004645762000463620005e3565b5b8060405250919050565b600067ffffffffffffffff8211156200048c576200048b620005e3565b5b601f19601f8301169050602081019050919050565b600082825260208201905092915050565b6000620004bf826200050f565b9150620004cc836200050f565b9250827fffffffffffffffffffffffffffffffffffffffffffffffffffffffffffffffff0382111562000504576200050362000585565b5b828201905092915050565b6000819050919050565b60005b83811015620005395780820151818401526020810190506200051c565b8381111562000549576000848401525b50505050565b600060028204905060018216806200056857607f821691505b602082108114156200057f576200057e620005b4565b5b50919050565b7f4e487b7100000000000000000000000000000000000000000000000000000000600052601160045260246000fd5b7f4e487b7100000000000000000000000000000000000000000000000000000000600052602260045260246000fd5b7f4e487b7100000000000000000000000000000000000000000000000000000000600052604160045260246000fd5b6112e580620006226000396000f3fe608060405234801561001057600080fd5b50600436106100a95760003560e01c80633950935111610071578063395093511461016857806370a082311461019857806395d89b41146101c8578063a457c2d7146101e6578063a9059cbb14610216578063dd62ed3e14610246576100a9565b806306fdde03146100ae578063095ea7b3146100cc57806318160ddd146100fc57806323b872dd1461011a578063313ce5671461014a575b600080fd5b6100b6610276565b6040516100c39190610fae565b60405180910390f35b6100e660048036038101906100e19190610c4d565b610308565b6040516100f39190610f93565b60405180910390f35b61010461032b565b60405161011191906110b0565b60405180910390f35b610134600480360381019061012f9190610bfe565b610335565b6040516101419190610f93565b60405180910390f35b610152610364565b60405161015f91906110cb565b60405180910390f35b610182600480360381019061017d9190610c4d565b61036d565b60405161018f9190610f93565b60405180910390f35b6101b260048036038101906101ad9190610b99565b610417565b6040516101bf91906110b0565b60405180910390f35b6101d061045f565b6040516101dd9190610fae565b60405180910390f35b61020060048036038101906101fb9190610c4d565b6104f1565b60405161020d9190610f93565b60405180910390f35b610230600480360381019061022b9190610c4d565b6105db565b60405161023d9190610f93565b60405180910390f35b610260600480360381019061025b9190610bc2565b6105fe565b60405161026d91906110b0565b60405180910390f35b606060038054610285906111e0565b80601f01602080910402602001604051908101604052809291908181526020018280546102b1906111e0565b80156102fe5780601f106102d3576101008083540402835291602001916102fe565b820191906000526020600020905b8154815290600101906020018083116102e157829003601f168201915b5050505050905090565b600080610313610685565b905061032081858561068d565b600191505092915050565b6000600254905090565b600080610340610685565b905061034d858285610858565b6103588585856108e4565b60019150509392505050565b60006012905090565b600080610378610685565b905061040c818585600160008673ffffffffffffffffffffffffffffffffffffffff1673ffffffffffffffffffffffffffffffffffffffff16815260200190815260200160002060008973ffffffffffffffffffffffffffffffffffffffff1673ffffffffffffffffffffffffffffffffffffffff168152602001908152602001600020546104079190611102565b61068d565b600191505092915050565b60008060008373ffffffffffffffffffffffffffffffffffffffff1673ffffffffffffffffffffffffffffffffffffffff168152602001908152602001600020549050919050565b60606004805461046e906111e0565b80601f016020809104026020016040519081016040528092919081815260200182805461049a906111e0565b80156104e75780601f106104bc576101008083540402835291602001916104e7565b820191906000526020600020905b8154815290600101906020018083116104ca57829003601f168201915b5050505050905090565b6000806104fc610685565b90506000600160008373ffffffffffffffffffffffffffffffffffffffff1673ffffffffffffffffffffffffffffffffffffffff16815260200190815260200160002060008673ffffffffffffffffffffffffffffffffffffffff1673ffffffffffffffffffffffffffffffffffffffff168152602001908152602001600020549050838110156105c2576040517f08c379a00000000000000000000000000000000000000000000000000000000081526004016105b990611090565b60405180910390fd5b6105cf828686840361068d565b60019250505092915050565b6000806105e6610685565b90506105f38185856108e4565b600191505092915050565b6000600160008473ffffffffffffffffffffffffffffffffffffffff1673ffffffffffffffffffffffffffffffffffffffff16815260200190815260200160002060008373ffffffffffffffffffffffffffffffffffffffff1673ffffffffffffffffffffffffffffffffffffffff16815260200190815260200160002054905092915050565b600033905090565b600073ffffffffffffffffffffffffffffffffffffffff168373ffffffffffffffffffffffffffffffffffffffff1614156106fd576040517f08c379a00000000000000000000000000000000000000000000000000000000081526004016106f490611070565b60405180910390fd5b600073ffffffffffffffffffffffffffffffffffffffff168273ffffffffffffffffffffffffffffffffffffffff16141561076d576040517f08c379a000000000000000000000000000000000000000000000000000000000815260040161076490610ff0565b60405180910390fd5b80600160008573ffffffffffffffffffffffffffffffffffffffff1673ffffffffffffffffffffffffffffffffffffffff16815260200190815260200160002060008473ffffffffffffffffffffffffffffffffffffffff1673ffffffffffffffffffffffffffffffffffffffff168152602001908152602001600020819055508173ffffffffffffffffffffffffffffffffffffffff168373ffffffffffffffffffffffffffffffffffffffff167f8c5be1e5ebec7d5bd14f71427d1e84f3dd0314c0f7b2291e5b200ac8c7c3b9258360405161084b91906110b0565b60405180910390a3505050565b600061086484846105fe565b90507fffffffffffffffffffffffffffffffffffffffffffffffffffffffffffffffff81146108de57818110156108d0576040517f08c379a00000000000000000000000000000000000000000000000000000000081526004016108c790611010565b60405180910390fd5b6108dd848484840361068d565b5b50505050565b600073ffffffffffffffffffffffffffffffffffffffff168373ffffffffffffffffffffffffffffffffffffffff161415610954576040517f08c379a000000000000000000000000000000000000000000000000000000000815260040161094b90611050565b60405180910390fd5b600073ffffffffffffffffffffffffffffffffffffffff168273ffffffffffffffffffffffffffffffffffffffff1614156109c4576040517f08c379a00000000000000000000000000000000000000000000000000000000081526004016109bb90610fd0565b60405180910390fd5b6109cf838383610b65565b60008060008573ffffffffffffffffffffffffffffffffffffffff1673ffffffffffffffffffffffffffffffffffffffff16815260200190815260200160002054905081811015610a55576040517f08c379a0000000000000000000000000000000000000000000000000000000008152600401610a4c90611030565b60405180910390fd5b8181036000808673ffffffffffffffffffffffffffffffffffffffff1673ffffffffffffffffffffffffffffffffffffffff16815260200190815260200160002081905550816000808573ffffffffffffffffffffffffffffffffffffffff1673ffffffffffffffffffffffffffffffffffffffff1681526020019081526020016000206000828254610ae89190611102565b925050819055508273ffffffffffffffffffffffffffffffffffffffff168473ffffffffffffffffffffffffffffffffffffffff167fddf252ad1be2c89b69c2b068fc378daa952ba7f163c4a11628f55a4df523b3ef84604051610b4c91906110b0565b60405180910390a3610b5f848484610b6a565b50505050565b505050565b505050565b600081359050610b7e81611281565b92915050565b600081359050610b9381611298565b92915050565b600060208284031215610bab57600080fd5b6000610bb984828501610b6f565b91505092915050565b60008060408385031215610bd557600080fd5b6000610be385828601610b6f565b9250506020610bf485828601610b6f565b9150509250929050565b600080600060608486031215610c1357600080fd5b6000610c2186828701610b6f565b9350506020610c3286828701610b6f565b9250506040610c4386828701610b84565b9150509250925092565b60008060408385031215610c6057600080fd5b6000610c6e85828601610b6f565b9250506020610c7f85828601610b84565b9150509250929050565b610c928161116a565b82525050565b6000610ca3826110e6565b610cad81856110f1565b9350610cbd8185602086016111ad565b610cc681611270565b840191505092915050565b6000610cde6023836110f1565b91507f45524332303a207472616e7366657220746f20746865207a65726f206164647260008301527f65737300000000000000000000000000000000000000000000000000000000006020830152604082019050919050565b6000610d446022836110f1565b91507f45524332303a20617070726f766520746f20746865207a65726f20616464726560008301527f73730000000000000000000000000000000000000000000000000000000000006020830152604082019050919050565b6000610daa601d836110f1565b91507f45524332303a20696e73756666696369656e7420616c6c6f77616e63650000006000830152602082019050919050565b6000610dea6026836110f1565b91507f45524332303a207472616e7366657220616d6f756e742065786365656473206260008301527f616c616e636500000000000000000000000000000000000000000000000000006020830152604082019050919050565b6000610e506025836110f1565b91507f45524332303a207472616e736665722066726f6d20746865207a65726f20616460008301527f64726573730000000000000000000000000000000000000000000000000000006020830152604082019050919050565b6000610eb66024836110f1565b91507f45524332303a20617070726f76652066726f6d20746865207a65726f2061646460008301527f72657373000000000000000000000000000000000000000000000000000000006020830152604082019050919050565b6000610f1c6025836110f1565b91507f45524332303a2064656372656173656420616c6c6f77616e63652062656c6f7760008301527f207a65726f0000000000000000000000000000000000000000000000000000006020830152604082019050919050565b610f7e81611196565b82525050565b610f8d816111a0565b82525050565b6000602082019050610fa86000830184610c89565b92915050565b60006020820190508181036000830152610fc88184610c98565b905092915050565b60006020820190508181036000830152610fe981610cd1565b9050919050565b6000602082019050818103600083015261100981610d37565b9050919050565b6000602082019050818103600083015261102981610d9d565b9050919050565b6000602082019050818103600083015261104981610ddd565b9050919050565b6000602082019050818103600083015261106981610e43565b9050919050565b6000602082019050818103600083015261108981610ea9565b9050919050565b600060208201905081810360008301526110a981610f0f565b9050919050565b60006020820190506110c56000830184610f75565b92915050565b60006020820190506110e06000830184610f84565b92915050565b600081519050919050565b600082825260208201905092915050565b600061110d82611196565b915061111883611196565b9250827fffffffffffffffffffffffffffffffffffffffffffffffffffffffffffffffff0382111561114d5761114c611212565b5b828201905092915050565b600061116382611176565b9050919050565b60008115159050919050565b600073ffffffffffffffffffffffffffffffffffffffff82169050919050565b6000819050919050565b600060ff82169050919050565b60005b838110156111cb5780820151818401526020810190506111b0565b838111156111da576000848401525b50505050565b600060028204905060018216806111f857607f821691505b6020821081141561120c5761120b611241565b5b50919050565b7f4e487b7100000000000000000000000000000000000000000000000000000000600052601160045260246000fd5b7f4e487b7100000000000000000000000000000000000000000000000000000000600052602260045260246000fd5b6000601f19601f8301169050919050565b61128a81611158565b811461129557600080fd5b50565b6112a181611196565b81146112ac57600080fd5b5056fea264697066735822122087d4d827a72dece4b78e1d74abfa3c725ba32b195f5ab0022377cef5f935c45264736f6c63430008000033",
  "linkReferences": {},
  "deployedLinkReferences": {}
}